{
  "contractName": "Creator",
  "abi": [
    {
      "constant": false,
      "inputs": [
        {
          "name": "_timeLimit",
          "type": "uint32"
        },
        {
          "name": "_ballotType",
          "type": "uint8"
        },
        {
          "name": "_voteLimit",
          "type": "uint8"
        },
        {
          "name": "_ballotId",
          "type": "uint32"
        },
        {
          "name": "_title",
          "type": "string"
        },
        {
          "name": "_whitelisted",
          "type": "uint8"
        }
      ],
      "name": "createBallot",
      "outputs": [],
      "payable": false,
      "stateMutability": "nonpayable",
      "type": "function"
    },
    {
      "constant": true,
      "inputs": [
        {
          "name": "id",
          "type": "uint32"
        }
      ],
      "name": "getAddress",
      "outputs": [
        {
          "name": "contractAddress",
          "type": "address"
        }
      ],
      "payable": false,
      "stateMutability": "view",
      "type": "function"
    }
  ],
  "bytecode": "0x6060604052341561000f57600080fd5b6118ab8061001e6000396000f30060606040526004361061004c576000357c0100000000000000000000000000000000000000000000000000000000900463ffffffff168063550da4781461005157806368501aee146100f0575b600080fd5b341561005c57600080fd5b6100ee600480803563ffffffff1690602001909190803560ff1690602001909190803560ff1690602001909190803563ffffffff1690602001909190803590602001908201803590602001908080601f0160208091040260200160405190810160405280939291908181526020018383808284378201915050505050509190803560ff16906020019091905050610159565b005b34156100fb57600080fd5b610117600480803563ffffffff1690602001909190505061033a565b604051808273ffffffffffffffffffffffffffffffffffffffff1673ffffffffffffffffffffffffffffffffffffffff16815260200191505060405180910390f35b600033600160006101000a81548173ffffffffffffffffffffffffffffffffffffffff021916908373ffffffffffffffffffffffffffffffffffffffff160217905550868686868686600160009054906101000a900473ffffffffffffffffffffffffffffffffffffffff166101cd610382565b808863ffffffff1663ffffffff1681526020018760ff1660ff1681526020018660ff1660ff1681526020018563ffffffff1663ffffffff168152602001806020018460ff1660ff1681526020018373ffffffffffffffffffffffffffffffffffffffff1673ffffffffffffffffffffffffffffffffffffffff168152602001828103825285818151815260200191508051906020019080838360005b83811015610284578082015181840152602081019050610269565b50505050905090810190601f1680156102b15780820380516001836020036101000a031916815260200191505b5098505050505050505050604051809103906000f08015156102d257600080fd5b9050806000808663ffffffff1663ffffffff16815260200190815260200160002060006101000a81548173ffffffffffffffffffffffffffffffffffffffff021916908373ffffffffffffffffffffffffffffffffffffffff16021790555050505050505050565b60008060008363ffffffff1663ffffffff16815260200190815260200160002060009054906101000a900473ffffffffffffffffffffffffffffffffffffffff169050919050565b6040516114ed80610393833901905600606060405234156200001057600080fd5b604051620014ed380380620014ed8339810160405280805190602001909190805190602001909190805190602001909190805190602001909190805182019190602001805190602001909190805190602001909190505086600560000160066101000a81548163ffffffff021916908363ffffffff16021790555085600560000160006101000a81548160ff021916908360ff16021790555084600560000160056101000a81548160ff021916908360ff16021790555083600560000160016101000a81548163ffffffff021916908363ffffffff16021790555082600560010190805190602001906200010692919062000173565b5081600560020160006101000a81548160ff021916908360ff16021790555080601060006101000a81548173ffffffffffffffffffffffffffffffffffffffff021916908373ffffffffffffffffffffffffffffffffffffffff1602179055505050505050505062000222565b828054600181600116156101000203166002900490600052602060002090601f016020900481019282601f10620001b657805160ff1916838001178555620001e7565b82800160010185558215620001e7579182015b82811115620001e6578251825591602001919060010190620001c9565b5b509050620001f69190620001fa565b5090565b6200021f91905b808211156200021b57600081600090555060010162000201565b5090565b90565b6112bb80620002326000396000f3006060604052600436106100d0576000357c0100000000000000000000000000000000000000000000000000000000900463ffffffff16806306f2057a146100d55780632f265cf714610102578063392e66781461013d5780635374be8f1461017c578063555a1ad6146101bb5780635b9eb761146101f05780636cfd8b821461021d5780636ec4847a14610232578063922133e31461025f578063a711b8781461029a578063b8381c781461031c578063c9ccaea114610376578063d05841a01461041d578063ff3c1a8f14610477575b600080fd5b34156100e057600080fd5b6100e8610505565b604051808215151515815260200191505060405180910390f35b341561010d57600080fd5b610127600480803560001916906020019091905050610536565b6040518082815260200191505060405180910390f35b341561014857600080fd5b6101626004808035600019169060200190919050506105ac565b604051808215151515815260200191505060405180910390f35b341561018757600080fd5b6101a160048080356000191690602001909190505061063b565b604051808215151515815260200191505060405180910390f35b34156101c657600080fd5b6101ce6106ae565b604051808263ffffffff1663ffffffff16815260200191505060405180910390f35b34156101fb57600080fd5b6102036106cb565b604051808215151515815260200191505060405180910390f35b341561022857600080fd5b610230610702565b005b341561023d57600080fd5b6102456108f4565b604051808215151515815260200191505060405180910390f35b341561026a57600080fd5b610284600480803560001916906020019091905050610976565b6040518082815260200191505060405180910390f35b34156102a557600080fd5b6102c5600480803567ffffffffffffffff169060200190919050506109b7565b6040518080602001828103825283818151815260200191508051906020019060200280838360005b838110156103085780820151818401526020810190506102ed565b505050509050019250505060405180910390f35b341561032757600080fd5b610374600480803590602001908201803590602001908080602002602001604051908101604052809392919081815260200183836020028082843782019150505050505091905050610a37565b005b341561038157600080fd5b61041b6004808035906020019082018035906020019080806020026020016040519081016040528093929190818152602001838360200280828437820191505050505050919080356000191690602001909190803590602001908201803590602001908080602002602001604051908101604052809392919081815260200183836020028082843782019150505050505091905050610b0a565b005b341561042857600080fd5b610475600480803590602001908201803590602001908080602002602001604051908101604052809392919081815260200183836020028082843782019150505050505091905050610ce0565b005b341561048257600080fd5b61048a610db2565b6040518080602001828103825283818151815260200191508051906020019080838360005b838110156104ca5780820151818401526020810190506104af565b50505050905090810190601f1680156104f75780820380516001836020036101000a031916815260200191505b509250505060405180910390f35b60006001600560020160009054906101000a900460ff1660ff16141561052e5760019050610533565b600090505b90565b6000801515610543610e5d565b151514801561055d5750600115156105596106cb565b1515145b1561056b57600090506105a7565b60001515610578836105ac565b1515141561058557600080fd5b6000600201600083600019166000191681526020019081526020016000205490505b919050565b600080600090505b60008001805490508110156106305760008001818154811015156105d457fe5b906000526020600020900154600a8160001916905550826000191660006001016000600a5460001916600019168152602001908152602001600020546000191614156106235760019150610635565b80806001019150506105b4565b600091505b50919050565b600080600090505b6003600001805490508110156106a35760036000018181548110151561066557fe5b906000526020600020900154600f81600019169055508260001916600f5460001916141561069657600191506106a8565b8080600101915050610643565b600091505b50919050565b6000600560000160069054906101000a900463ffffffff16905090565b6000600560000160069054906101000a900463ffffffff1663ffffffff16421015156106fa57600090506106ff565b600190505b90565b6000601060009054906101000a900473ffffffffffffffffffffffffffffffffffffffff1673ffffffffffffffffffffffffffffffffffffffff163373ffffffffffffffffffffffffffffffffffffffff1614151561076057600080fd5b6001600b81905550600090505b60008001805490508110156108f157600080018181548110151561078d57fe5b906000526020600020900154600a81600019169055506107ae600a54610e8e565b600890805190602001906107c39291906110bd565b50600860405180828054600181600116156101000203166002900480156108215780601f106107ff576101008083540402835291820191610821565b820191906000526020600020905b81548152906001019060200180831161080d575b5050915050604051809103902060006001016000600a54600019166000191681526020019081526020016000208160001916905550600b5460006002016000600860405180828054600181600116156101000203166002900480156108bd5780601f1061089b5761010080835404028352918201916108bd565b820191906000526020600020905b8154815290600101906020018083116108a9575b505091505060405180910390206000191660001916815260200190815260200160002081905550808060010191505061076d565b50565b6000600560000160059054906101000a900460ff1660ff16600360010160003373ffffffffffffffffffffffffffffffffffffffff1673ffffffffffffffffffffffffffffffffffffffff16815260200190815260200160002060009054906101000a900460ff1660ff16141561096e5760009050610973565b600190505b90565b6000801515610984836105ac565b1515141561099157600080fd5b600060020160008360001916600019168152602001908152602001600020549050919050565b6109bf61113d565b600015156109cc8361107b565b151514156109d957600080fd5b60008001805480602002602001604051908101604052809291908181526020018280548015610a2b57602002820191906000526020600020905b81546000191681526020019060010190808311610a13575b50505050509050919050565b6000601060009054906101000a900473ffffffffffffffffffffffffffffffffffffffff1673ffffffffffffffffffffffffffffffffffffffff163373ffffffffffffffffffffffffffffffffffffffff16141515610a9557600080fd5b600090505b8151811015610b06578181815181101515610ab157fe5b90602001906020020151600f816000191690555060036000018054806001018281610adc9190611151565b91600052602060002090016000600f54909190915090600019169055508080600101915050610a9a565b5050565b6000801515610b176106cb565b15151480610b30575060001515610b2c6108f4565b1515145b15610b3a57600080fd5b60011515610b46610505565b1515148015610b61575060001515610b5d8461063b565b1515145b15610b6b57600080fd5b83600d9080519060200190610b8192919061117d565b5081600e9080519060200190610b989291906111ca565b506001600360010160003373ffffffffffffffffffffffffffffffffffffffff1673ffffffffffffffffffffffffffffffffffffffff16815260200190815260200160002060008282829054906101000a900460ff160192506101000a81548160ff021916908360ff160217905550600090505b600e80549050811015610cda57600e81815481101515610c2857fe5b906000526020600020900154600a816000191690555060006001016000600a546000191660001916815260200190815260200160002054600c816000191690555060001515610c78600c546105ac565b15151415610c8557600080fd5b600d81815481101515610c9457fe5b906000526020600020900154600b81905550600b5460006002016000600c5460001916600019168152602001908152602001600020819055508080600101915050610c0c565b50505050565b6000601060009054906101000a900473ffffffffffffffffffffffffffffffffffffffff1673ffffffffffffffffffffffffffffffffffffffff163373ffffffffffffffffffffffffffffffffffffffff16141515610d3e57600080fd5b600090505b8151811015610dae578181815181101515610d5a57fe5b90602001906020020151600a8160001916905550600080018054806001018281610d849190611151565b91600052602060002090016000600a54909190915090600019169055508080600101915050610d43565b5050565b610dba61121d565b60056001018054600181600116156101000203166002900480601f016020809104026020016040519081016040528092919081815260200182805460018160011615610100020316600290048015610e535780601f10610e2857610100808354040283529160200191610e53565b820191906000526020600020905b815481529060010190602001808311610e3657829003601f168201915b5050505050905090565b60006001600560000160009054906101000a900460ff1660ff161415610e865760009050610e8b565b600190505b90565b610e9661121d565b610e9e611231565b6000806000610eab611231565b6020604051805910610eba5750595b9080825280601f01601f1916602001820160405250945060009350600092505b6020831015610f98578260080260020a876001900402600102915060007f010000000000000000000000000000000000000000000000000000000000000002827effffffffffffffffffffffffffffffffffffffffffffffffffffffffffffff1916141515610f8b57818585815181101515610f5257fe5b9060200101907effffffffffffffffffffffffffffffffffffffffffffffffffffffffffffff1916908160001a90535083806001019450505b8280600101935050610eda565b83604051805910610fa65750595b9080825280601f01601f19166020018201604052509050600092505b8383101561106e578483815181101515610fd857fe5b9060200101517f010000000000000000000000000000000000000000000000000000000000000090047f010000000000000000000000000000000000000000000000000000000000000002818481518110151561103157fe5b9060200101907effffffffffffffffffffffffffffffffffffffffffffffffffffffffffffff1916908160001a9053508280600101935050610fc2565b8095505050505050919050565b6000600560000160019054906101000a900463ffffffff1663ffffffff168267ffffffffffffffff1614156110b357600190506110b8565b600090505b919050565b828054600181600116156101000203166002900490600052602060002090601f016020900481019282601f106110fe57805160ff191683800117855561112c565b8280016001018555821561112c579182015b8281111561112b578251825591602001919060010190611110565b5b5090506111399190611245565b5090565b602060405190810160405280600081525090565b81548183558181151161117857818360005260206000209182019101611177919061126a565b5b505050565b8280548282559060005260206000209081019282156111b9579160200282015b828111156111b857825182559160200191906001019061119d565b5b5090506111c69190611245565b5090565b82805482825590600052602060002090810192821561120c579160200282015b8281111561120b5782518290600019169055916020019190600101906111ea565b5b509050611219919061126a565b5090565b602060405190810160405280600081525090565b602060405190810160405280600081525090565b61126791905b8082111561126357600081600090555060010161124b565b5090565b90565b61128c91905b80821115611288576000816000905550600101611270565b5090565b905600a165627a7a723058204e36c1153e1e68c031c80d7b862b146ee2557a90a48787256e236a693fe116d70029a165627a7a723058205f95a7e05e4d1fc9741b1653231f8e09acd5fac5fe949352ed09deefde09508d0029",
  "source": "pragma solidity ^0.4.19;\n\ncontract Voting {\n\n    struct Ballot {\n        uint8 ballotType;\n        uint32 ballotId;\n        uint8 voteLimit;\n        uint32 timeLimit;\n        string title;\n        uint8 whitelist;\n    }\n\n    struct Candidates {\n        bytes32[] candidateList;\n        mapping (bytes32 => bytes32) candidateHash;\n        mapping (bytes32 => uint256) votesReceived;\n    }\n\n    struct Voter {\n        bytes32[] whitelisted;\n        mapping (address => uint8) attemptedVotes;\n    }\n\n    Candidates c;\n    Voter v;\n    Ballot b;\n\n    string convertCandidate;\n    string tempTitle;\n    bytes32 tempCandidate;\n    uint256 tempVote;\n    bytes32 tempHash;\n    uint256[] tempVotes;\n    bytes32[] tempCandidates;\n    bytes32 tempEmail;\n    address owner;\n\n    function Voting(uint32 _timeLimit, uint8 _ballotType, uint8 _voteLimit, uint32 _ballotId, string _title, uint8 _whitelist, address _owner) public {\n        b.timeLimit = _timeLimit;\n        b.ballotType = _ballotType;\n        b.voteLimit = _voteLimit;\n        b.ballotId = _ballotId;\n        b.title = _title;\n        b.whitelist = _whitelist;\n\n        owner = _owner;\n    }\n\n    modifier onlyOwner {\n        require(msg.sender == owner);\n        _;\n    }\n\n    function setCandidates(bytes32[] _candidates) public onlyOwner {\n        for(uint i = 0; i < _candidates.length; i++) {\n            tempCandidate = _candidates[i];\n            c.candidateList.push(tempCandidate);\n        }\n    }\n\n    function setWhitelisted(bytes32[] _emails) public onlyOwner {\n        for(uint i = 0; i < _emails.length; i++) {\n            tempEmail = _emails[i];\n            v.whitelisted.push(tempEmail);\n        }\n    }\n\n    function hashCandidates() public onlyOwner {\n        tempVote = 1;\n        for(uint i = 0; i < c.candidateList.length; i++) {\n            tempCandidate = c.candidateList[i];\n            convertCandidate = bytes32ToString(tempCandidate);\n            c.candidateHash[tempCandidate] = keccak256(convertCandidate);\n            c.votesReceived[keccak256(convertCandidate)] = tempVote;\n        }\n    }\n\n    function voteForCandidate(uint256[] _votes, bytes32 _email, bytes32[] _candidates) public {\n        if (checkTimelimit() == false || checkVoteattempts() == false) revert();\n        if (checkWhitelist() == true && checkifWhitelisted(_email) == false) revert();\n        tempVotes = _votes;\n        tempCandidates = _candidates;\n        v.attemptedVotes[msg.sender] += 1;\n\n        for(uint i = 0; i < tempCandidates.length; i++) {\n            tempCandidate = tempCandidates[i];\n            tempHash = c.candidateHash[tempCandidate];\n            if (validCandidate(tempHash) == false) revert();\n            tempVote = tempVotes[i];\n            c.votesReceived[tempHash] = tempVote;\n        }\n    }\n\n    function votesFor(bytes32 cHash) public view returns (uint256){\n        if (validCandidate(cHash) == false) revert();\n        return c.votesReceived[cHash];\n    }\n\n    function totalVotesFor(bytes32 cHash) public view returns (uint256){\n        if (checkBallottype() == false && checkTimelimit() == true) return 0;\n        if (validCandidate(cHash) == false) revert();\n        return c.votesReceived[cHash];\n    }\n\n    function bytes32ToString(bytes32 x) private pure returns (string) {\n        bytes memory bytesString = new bytes(32);\n        uint charCount = 0;\n        for (uint j = 0; j < 32; j++) {\n            byte char = byte(bytes32(uint(x) * 2 ** (8 * j)));\n            if (char != 0) {\n                bytesString[charCount] = char;\n                charCount++;\n            }\n        }\n        bytes memory bytesStringTrimmed = new bytes(charCount);\n        for (j = 0; j < charCount; j++) {\n            bytesStringTrimmed[j] = bytesString[j];\n        }\n        return string(bytesStringTrimmed);\n    }\n\n    function validCandidate(bytes32 cHash) public view returns (bool) {\n        for(uint k = 0; k < c.candidateList.length; k++) {\n            tempCandidate = c.candidateList[k];\n            if (c.candidateHash[tempCandidate] == cHash) {\n                return true;\n            }\n        }\n        return false;\n    }\n\n    function candidateList(uint64 _ballotID) public view returns (bytes32[]) {\n        if (checkballotID(_ballotID) == false) revert();\n        return c.candidateList;\n    }\n\n    function checkTimelimit() public view returns (bool) {\n        if (block.timestamp >= b.timeLimit) return false;\n        else return true;\n    }\n\n    function checkBallottype() private view returns (bool) {\n        if (b.ballotType == 1) return false;\n        else return true;\n    }\n\n    function checkballotID(uint64 ballotID) private view returns (bool) {\n        if (ballotID == b.ballotId) return true;\n        else return false;\n    }\n\n    function checkVoteattempts() public view returns (bool) {\n        if (v.attemptedVotes[msg.sender] == b.voteLimit) return false;\n        else return true;\n    }\n\n    function checkWhitelist() public view returns (bool) {\n        if (b.whitelist == 1) return true;\n        else return false;\n    }\n\n    function checkifWhitelisted(bytes32 email) public view returns (bool) {\n        for(uint j = 0; j < v.whitelisted.length; j++) {\n            tempEmail = v.whitelisted[j];\n            if (tempEmail == email) {\n                return true;\n            }\n        }\n        return false;\n    }\n\n    function getTimelimit() public view returns (uint32) {\n        return b.timeLimit;\n    }\n\n    function getTitle() public view returns (string) {\n        return b.title;\n    }\n}\n\n//                         //\n//Start of Creator contract//\n//                         //\n\ncontract Creator {\n\n    mapping (uint32 => address) contracts;\n    address owner;\n\n    function createBallot(uint32 _timeLimit, uint8 _ballotType, uint8 _voteLimit, uint32 _ballotId, string _title, uint8 _whitelisted) public {\n        owner = msg.sender;\n        address newContract = new Voting(_timeLimit, _ballotType, _voteLimit, _ballotId, _title, _whitelisted, owner);\n        contracts[_ballotId] = newContract;\n    }\n\n    function getAddress(uint32 id) public view returns(address contractAddress) {\n        return contracts[id];\n    }\n}\n",
  "sourcePath": "/home/ispm-eth/Ethereum/BroncoVotes/contracts/Creator.sol",
  "compiler": {
    "name": "solc",
    "version": "0.4.19+commit.c4cbbb05.Emscripten.clang"
  },
  "schemaVersion": "1.0.1",
  "updatedAt": "2018-10-09T01:22:52.051Z"
}