{
  "contractName": "Voting",
  "abi": [
    {
      "inputs": [
        {
          "name": "_timeLimit",
          "type": "uint32"
        },
        {
          "name": "_ballotType",
          "type": "uint8"
        },
        {
          "name": "_voteLimit",
          "type": "uint8"
        },
        {
          "name": "_ballotId",
          "type": "uint32"
        },
        {
          "name": "_title",
          "type": "string"
        },
        {
          "name": "_whitelist",
          "type": "uint8"
        },
        {
          "name": "_votesToWin",
          "type": "uint8"
        },
        {
          "name": "_owner",
          "type": "address"
        }
      ],
      "payable": false,
      "stateMutability": "nonpayable",
      "type": "constructor"
    },
    {
      "constant": false,
      "inputs": [
        {
          "name": "_candidates",
          "type": "bytes32[]"
        }
      ],
      "name": "setCandidates",
      "outputs": [],
      "payable": false,
      "stateMutability": "nonpayable",
      "type": "function"
    },
    {
      "constant": false,
      "inputs": [
        {
          "name": "_emails",
          "type": "bytes32[]"
        }
      ],
      "name": "setWhitelisted",
      "outputs": [],
      "payable": false,
      "stateMutability": "nonpayable",
      "type": "function"
    },
    {
      "constant": false,
      "inputs": [],
      "name": "hashCandidates",
      "outputs": [],
      "payable": false,
      "stateMutability": "nonpayable",
      "type": "function"
    },
    {
      "constant": false,
      "inputs": [
        {
          "name": "_votes",
          "type": "uint256[]"
        },
        {
          "name": "_email",
          "type": "bytes32"
        },
        {
          "name": "_candidates",
          "type": "bytes32[]"
        }
      ],
      "name": "voteForCandidate",
      "outputs": [],
      "payable": false,
      "stateMutability": "nonpayable",
      "type": "function"
    },
    {
      "constant": true,
      "inputs": [
        {
          "name": "cHash",
          "type": "bytes32"
        }
      ],
      "name": "votesFor",
      "outputs": [
        {
          "name": "",
          "type": "uint256"
        }
      ],
      "payable": false,
      "stateMutability": "view",
      "type": "function"
    },
    {
      "constant": true,
      "inputs": [
        {
          "name": "cHash",
          "type": "bytes32"
        }
      ],
      "name": "totalVotesFor",
      "outputs": [
        {
          "name": "",
          "type": "uint256"
        }
      ],
      "payable": false,
      "stateMutability": "view",
      "type": "function"
    },
    {
      "constant": true,
      "inputs": [
        {
          "name": "cHash",
          "type": "bytes32"
        }
      ],
      "name": "validCandidate",
      "outputs": [
        {
          "name": "",
          "type": "bool"
        }
      ],
      "payable": false,
      "stateMutability": "view",
      "type": "function"
    },
    {
      "constant": true,
      "inputs": [
        {
          "name": "_ballotID",
          "type": "uint64"
        }
      ],
      "name": "candidateList",
      "outputs": [
        {
          "name": "",
          "type": "bytes32[]"
        }
      ],
      "payable": false,
      "stateMutability": "view",
      "type": "function"
    },
    {
      "constant": true,
      "inputs": [],
      "name": "checkTimelimit",
      "outputs": [
        {
          "name": "",
          "type": "bool"
        }
      ],
      "payable": false,
      "stateMutability": "view",
      "type": "function"
    },
    {
      "constant": true,
      "inputs": [
        {
          "name": "cHash",
          "type": "bytes32"
        }
      ],
      "name": "checkVotesToWin",
      "outputs": [
        {
          "name": "",
          "type": "uint256"
        }
      ],
      "payable": false,
      "stateMutability": "view",
      "type": "function"
    },
    {
      "constant": true,
      "inputs": [],
      "name": "checkVoteattempts",
      "outputs": [
        {
          "name": "",
          "type": "bool"
        }
      ],
      "payable": false,
      "stateMutability": "view",
      "type": "function"
    },
    {
      "constant": true,
      "inputs": [],
      "name": "checkWhitelist",
      "outputs": [
        {
          "name": "",
          "type": "bool"
        }
      ],
      "payable": false,
      "stateMutability": "view",
      "type": "function"
    },
    {
      "constant": true,
      "inputs": [
        {
          "name": "email",
          "type": "bytes32"
        }
      ],
      "name": "checkifWhitelisted",
      "outputs": [
        {
          "name": "",
          "type": "bool"
        }
      ],
      "payable": false,
      "stateMutability": "view",
      "type": "function"
    },
    {
      "constant": true,
      "inputs": [],
      "name": "getTimelimit",
      "outputs": [
        {
          "name": "",
          "type": "uint32"
        }
      ],
      "payable": false,
      "stateMutability": "view",
      "type": "function"
    },
    {
      "constant": true,
      "inputs": [],
      "name": "getTitle",
      "outputs": [
        {
          "name": "",
          "type": "string"
        }
      ],
      "payable": false,
      "stateMutability": "view",
      "type": "function"
    },
    {
      "constant": true,
      "inputs": [],
      "name": "getBallotType",
      "outputs": [
        {
          "name": "",
          "type": "uint8"
        }
      ],
      "payable": false,
      "stateMutability": "view",
      "type": "function"
    },
    {
      "constant": true,
      "inputs": [],
      "name": "getVotesToWin",
      "outputs": [
        {
          "name": "",
          "type": "uint8"
        }
      ],
      "payable": false,
      "stateMutability": "view",
      "type": "function"
    },
    {
      "constant": true,
      "inputs": [],
      "name": "getBallotStatus",
      "outputs": [
        {
          "name": "",
          "type": "uint8"
        }
      ],
      "payable": false,
      "stateMutability": "view",
      "type": "function"
    },
    {
      "constant": false,
      "inputs": [],
      "name": "changeBallotStatus",
      "outputs": [],
      "payable": false,
      "stateMutability": "nonpayable",
      "type": "function"
    }
  ],
  "bytecode": "0x606060405234156200001057600080fd5b6040516200171b3803806200171b8339810160405280805190602001909190805190602001909190805190602001909190805190602001909190805182019190602001805190602001909190805190602001909190805190602001909190505087600560000160066101000a81548163ffffffff021916908363ffffffff16021790555086600560000160006101000a81548160ff021916908360ff16021790555085600560000160056101000a81548160ff021916908360ff16021790555084600560000160016101000a81548163ffffffff021916908363ffffffff16021790555083600560010190805190602001906200010f929190620001ba565b5082600560020160006101000a81548160ff021916908360ff16021790555081600560020160016101000a81548160ff021916908360ff1602179055506000600560020160026101000a81548160ff021916908360ff16021790555080601060006101000a81548173ffffffffffffffffffffffffffffffffffffffff021916908373ffffffffffffffffffffffffffffffffffffffff160217905550505050505050505062000269565b828054600181600116156101000203166002900490600052602060002090601f016020900481019282601f10620001fd57805160ff19168380011785556200022e565b828001600101855582156200022e579182015b828111156200022d57825182559160200191906001019062000210565b5b5090506200023d919062000241565b5090565b6200026691905b808211156200026257600081600090555060010162000248565b5090565b90565b6114a280620002796000396000f300606060405260043610610107576000357c0100000000000000000000000000000000000000000000000000000000900463ffffffff16806306f2057a1461010c5780630a69df58146101395780631ca5771414610168578063293af812146101975780632f265cf7146101ac578063392e6678146101e75780635374be8f14610226578063555a1ad6146102655780635b9eb7611461029a5780636cfd8b82146102c75780636ec4847a146102dc578063922133e314610309578063a10cfae514610344578063a6aba0ac14610373578063a711b878146103ae578063b8381c7814610430578063c9ccaea11461048a578063d05841a014610531578063ff3c1a8f1461058b575b600080fd5b341561011757600080fd5b61011f610619565b604051808215151515815260200191505060405180910390f35b341561014457600080fd5b61014c61064a565b604051808260ff1660ff16815260200191505060405180910390f35b341561017357600080fd5b61017b610664565b604051808260ff1660ff16815260200191505060405180910390f35b34156101a257600080fd5b6101aa61067e565b005b34156101b757600080fd5b6101d160048080356000191690602001909190505061069f565b6040518082815260200191505060405180910390f35b34156101f257600080fd5b61020c600480803560001916906020019091905050610715565b604051808215151515815260200191505060405180910390f35b341561023157600080fd5b61024b6004808035600019169060200190919050506107a4565b604051808215151515815260200191505060405180910390f35b341561027057600080fd5b610278610817565b604051808263ffffffff1663ffffffff16815260200191505060405180910390f35b34156102a557600080fd5b6102ad610834565b604051808215151515815260200191505060405180910390f35b34156102d257600080fd5b6102da61086b565b005b34156102e757600080fd5b6102ef610a5d565b604051808215151515815260200191505060405180910390f35b341561031457600080fd5b61032e600480803560001916906020019091905050610adf565b6040518082815260200191505060405180910390f35b341561034f57600080fd5b610357610b20565b604051808260ff1660ff16815260200191505060405180910390f35b341561037e57600080fd5b610398600480803560001916906020019091905050610b3a565b6040518082815260200191505060405180910390f35b34156103b957600080fd5b6103d9600480803567ffffffffffffffff16906020019091905050610b7b565b6040518080602001828103825283818151815260200191508051906020019060200280838360005b8381101561041c578082015181840152602081019050610401565b505050509050019250505060405180910390f35b341561043b57600080fd5b610488600480803590602001908201803590602001908080602002602001604051908101604052809392919081815260200183836020028082843782019150505050505091905050610bfb565b005b341561049557600080fd5b61052f6004808035906020019082018035906020019080806020026020016040519081016040528093929190818152602001838360200280828437820191505050505050919080356000191690602001909190803590602001908201803590602001908080602002602001604051908101604052809392919081815260200183836020028082843782019150505050505091905050610cce565b005b341561053c57600080fd5b610589600480803590602001908201803590602001908080602002602001604051908101604052809392919081815260200183836020028082843782019150505050505091905050610ec7565b005b341561059657600080fd5b61059e610f99565b6040518080602001828103825283818151815260200191508051906020019080838360005b838110156105de5780820151818401526020810190506105c3565b50505050905090810190601f16801561060b5780820380516001836020036101000a031916815260200191505b509250505060405180910390f35b60006001600560020160009054906101000a900460ff1660ff1614156106425760019050610647565b600090505b90565b6000600560020160019054906101000a900460ff16905090565b6000600560000160009054906101000a900460ff16905090565b6001600560020160026101000a81548160ff021916908360ff160217905550565b60008015156106ac611044565b15151480156106c65750600115156106c2610834565b1515145b156106d45760009050610710565b600015156106e183610715565b151514156106ee57600080fd5b6000600201600083600019166000191681526020019081526020016000205490505b919050565b600080600090505b600080018054905081101561079957600080018181548110151561073d57fe5b906000526020600020900154600a8160001916905550826000191660006001016000600a54600019166000191681526020019081526020016000205460001916141561078c576001915061079e565b808060010191505061071d565b600091505b50919050565b600080600090505b60036000018054905081101561080c576003600001818154811015156107ce57fe5b906000526020600020900154600f81600019169055508260001916600f546000191614156107ff5760019150610811565b80806001019150506107ac565b600091505b50919050565b6000600560000160069054906101000a900463ffffffff16905090565b6000600560000160069054906101000a900463ffffffff1663ffffffff16421015156108635760009050610868565b600190505b90565b6000601060009054906101000a900473ffffffffffffffffffffffffffffffffffffffff1673ffffffffffffffffffffffffffffffffffffffff163373ffffffffffffffffffffffffffffffffffffffff161415156108c957600080fd5b6001600b81905550600090505b6000800180549050811015610a5a5760008001818154811015156108f657fe5b906000526020600020900154600a8160001916905550610917600a54611075565b6008908051906020019061092c9291906112a4565b506008604051808280546001816001161561010002031660029004801561098a5780601f1061096857610100808354040283529182019161098a565b820191906000526020600020905b815481529060010190602001808311610976575b5050915050604051809103902060006001016000600a54600019166000191681526020019081526020016000208160001916905550600b546000600201600060086040518082805460018160011615610100020316600290048015610a265780601f10610a04576101008083540402835291820191610a26565b820191906000526020600020905b815481529060010190602001808311610a12575b50509150506040518091039020600019166000191681526020019081526020016000208190555080806001019150506108d6565b50565b6000600560000160059054906101000a900460ff1660ff16600360010160003373ffffffffffffffffffffffffffffffffffffffff1673ffffffffffffffffffffffffffffffffffffffff16815260200190815260200160002060009054906101000a900460ff1660ff161415610ad75760009050610adc565b600190505b90565b6000801515610aed83610715565b15151415610afa57600080fd5b600060020160008360001916600019168152602001908152602001600020549050919050565b6000600560020160029054906101000a900460ff16905090565b6000801515610b4883610715565b15151415610b5557600080fd5b600060020160008360001916600019168152602001908152602001600020549050919050565b610b83611324565b60001515610b9083611262565b15151415610b9d57600080fd5b60008001805480602002602001604051908101604052809291908181526020018280548015610bef57602002820191906000526020600020905b81546000191681526020019060010190808311610bd7575b50505050509050919050565b6000601060009054906101000a900473ffffffffffffffffffffffffffffffffffffffff1673ffffffffffffffffffffffffffffffffffffffff163373ffffffffffffffffffffffffffffffffffffffff16141515610c5957600080fd5b600090505b8151811015610cca578181815181101515610c7557fe5b90602001906020020151600f816000191690555060036000018054806001018281610ca09190611338565b91600052602060002090016000600f54909190915090600019169055508080600101915050610c5e565b5050565b6000801515610cdb610834565b15151480610cf4575060001515610cf0610a5d565b1515145b15610cfe57600080fd5b60011515610d0a610619565b1515148015610d25575060001515610d21846107a4565b1515145b15610d2f57600080fd5b6001600560020160029054906101000a900460ff1660ff161415610d5257600080fd5b83600d9080519060200190610d68929190611364565b5081600e9080519060200190610d7f9291906113b1565b506001600360010160003373ffffffffffffffffffffffffffffffffffffffff1673ffffffffffffffffffffffffffffffffffffffff16815260200190815260200160002060008282829054906101000a900460ff160192506101000a81548160ff021916908360ff160217905550600090505b600e80549050811015610ec157600e81815481101515610e0f57fe5b906000526020600020900154600a816000191690555060006001016000600a546000191660001916815260200190815260200160002054600c816000191690555060001515610e5f600c54610715565b15151415610e6c57600080fd5b600d81815481101515610e7b57fe5b906000526020600020900154600b81905550600b5460006002016000600c5460001916600019168152602001908152602001600020819055508080600101915050610df3565b50505050565b6000601060009054906101000a900473ffffffffffffffffffffffffffffffffffffffff1673ffffffffffffffffffffffffffffffffffffffff163373ffffffffffffffffffffffffffffffffffffffff16141515610f2557600080fd5b600090505b8151811015610f95578181815181101515610f4157fe5b90602001906020020151600a8160001916905550600080018054806001018281610f6b9190611338565b91600052602060002090016000600a54909190915090600019169055508080600101915050610f2a565b5050565b610fa1611404565b60056001018054600181600116156101000203166002900480601f01602080910402602001604051908101604052809291908181526020018280546001816001161561010002031660029004801561103a5780601f1061100f5761010080835404028352916020019161103a565b820191906000526020600020905b81548152906001019060200180831161101d57829003601f168201915b5050505050905090565b60006001600560000160009054906101000a900460ff1660ff16141561106d5760009050611072565b600190505b90565b61107d611404565b611085611418565b6000806000611092611418565b60206040518059106110a15750595b9080825280601f01601f1916602001820160405250945060009350600092505b602083101561117f578260080260020a876001900402600102915060007f010000000000000000000000000000000000000000000000000000000000000002827effffffffffffffffffffffffffffffffffffffffffffffffffffffffffffff19161415156111725781858581518110151561113957fe5b9060200101907effffffffffffffffffffffffffffffffffffffffffffffffffffffffffffff1916908160001a90535083806001019450505b82806001019350506110c1565b8360405180591061118d5750595b9080825280601f01601f19166020018201604052509050600092505b838310156112555784838151811015156111bf57fe5b9060200101517f010000000000000000000000000000000000000000000000000000000000000090047f010000000000000000000000000000000000000000000000000000000000000002818481518110151561121857fe5b9060200101907effffffffffffffffffffffffffffffffffffffffffffffffffffffffffffff1916908160001a90535082806001019350506111a9565b8095505050505050919050565b6000600560000160019054906101000a900463ffffffff1663ffffffff168267ffffffffffffffff16141561129a576001905061129f565b600090505b919050565b828054600181600116156101000203166002900490600052602060002090601f016020900481019282601f106112e557805160ff1916838001178555611313565b82800160010185558215611313579182015b828111156113125782518255916020019190600101906112f7565b5b509050611320919061142c565b5090565b602060405190810160405280600081525090565b81548183558181151161135f5781836000526020600020918201910161135e9190611451565b5b505050565b8280548282559060005260206000209081019282156113a0579160200282015b8281111561139f578251825591602001919060010190611384565b5b5090506113ad919061142c565b5090565b8280548282559060005260206000209081019282156113f3579160200282015b828111156113f25782518290600019169055916020019190600101906113d1565b5b5090506114009190611451565b5090565b602060405190810160405280600081525090565b602060405190810160405280600081525090565b61144e91905b8082111561144a576000816000905550600101611432565b5090565b90565b61147391905b8082111561146f576000816000905550600101611457565b5090565b905600a165627a7a7230582079ea690c76441acbb4c489213f88ff1d3675729ff19af1eab8aa3c5555aa18c30029",
  "source": "pragma solidity ^0.4.19;\n\ncontract Voting {\n\n    struct Ballot {\n        uint8 ballotType;\n        uint32 ballotId;\n        uint8 voteLimit;\n        uint32 timeLimit;\n        string title;\n        uint8 whitelist;\n        uint8 votesToWin;\n        uint8 ended;\n    }\n\n    struct Candidates {\n        bytes32[] candidateList;\n        mapping (bytes32 => bytes32) candidateHash;\n        mapping (bytes32 => uint256) votesReceived;\n    }\n\n    struct Voter {\n        bytes32[] whitelisted;\n        mapping (address => uint8) attemptedVotes;\n    }\n\n    Candidates c;\n    Voter v;\n    Ballot b;\n\n    string convertCandidate;\n    string tempTitle;\n    bytes32 tempCandidate;\n    uint256 tempVote;\n    bytes32 tempHash;\n    uint256[] tempVotes;\n    bytes32[] tempCandidates;\n    bytes32 tempEmail;\n    address owner;\n\n    function Voting(uint32 _timeLimit, uint8 _ballotType, uint8 _voteLimit, uint32 _ballotId, string _title, uint8 _whitelist, uint8 _votesToWin, address _owner) public {\n        b.timeLimit = _timeLimit;\n        b.ballotType = _ballotType;\n        b.voteLimit = _voteLimit;\n        b.ballotId = _ballotId;\n        b.title = _title;\n        b.whitelist = _whitelist;\n        b.votesToWin = _votesToWin;\n        b.ended = 0;\n\n        owner = _owner;\n    }\n\n    modifier onlyOwner {\n        require(msg.sender == owner);\n        _;\n    }\n\n    function setCandidates(bytes32[] _candidates) public onlyOwner {\n        for(uint i = 0; i < _candidates.length; i++) {\n            tempCandidate = _candidates[i];\n            c.candidateList.push(tempCandidate);\n        }\n    }\n\n    function setWhitelisted(bytes32[] _emails) public onlyOwner {\n        for(uint i = 0; i < _emails.length; i++) {\n            tempEmail = _emails[i];\n            v.whitelisted.push(tempEmail);\n        }\n    }\n\n    function hashCandidates() public onlyOwner {\n        tempVote = 1;\n        for(uint i = 0; i < c.candidateList.length; i++) {\n            tempCandidate = c.candidateList[i];\n            convertCandidate = bytes32ToString(tempCandidate);\n            c.candidateHash[tempCandidate] = keccak256(convertCandidate);\n            c.votesReceived[keccak256(convertCandidate)] = tempVote;\n        }\n    }\n\n    function voteForCandidate(uint256[] _votes, bytes32 _email, bytes32[] _candidates) public {\n        if (checkTimelimit() == false || checkVoteattempts() == false) revert();\n        if (checkWhitelist() == true && checkifWhitelisted(_email) == false) revert();\n        if (b.ended == 1) revert();\n        tempVotes = _votes;\n        tempCandidates = _candidates;\n        v.attemptedVotes[msg.sender] += 1;\n\n        for(uint i = 0; i < tempCandidates.length; i++) {\n            tempCandidate = tempCandidates[i];\n            tempHash = c.candidateHash[tempCandidate];\n            if (validCandidate(tempHash) == false) revert();\n            tempVote = tempVotes[i];\n            c.votesReceived[tempHash] = tempVote;\n        }\n    }\n\n    function votesFor(bytes32 cHash) public view returns (uint256){\n        if (validCandidate(cHash) == false) revert();\n        return c.votesReceived[cHash];\n    }\n\n    function totalVotesFor(bytes32 cHash) public view returns (uint256){\n        if (checkBallottype() == false && checkTimelimit() == true) return 0;\n        if (validCandidate(cHash) == false) revert();\n        return c.votesReceived[cHash];\n    }\n\n    function bytes32ToString(bytes32 x) private pure returns (string) {\n        bytes memory bytesString = new bytes(32);\n        uint charCount = 0;\n        for (uint j = 0; j < 32; j++) {\n            byte char = byte(bytes32(uint(x) * 2 ** (8 * j)));\n            if (char != 0) {\n                bytesString[charCount] = char;\n                charCount++;\n            }\n        }\n        bytes memory bytesStringTrimmed = new bytes(charCount);\n        for (j = 0; j < charCount; j++) {\n            bytesStringTrimmed[j] = bytesString[j];\n        }\n        return string(bytesStringTrimmed);\n    }\n\n    function validCandidate(bytes32 cHash) public view returns (bool) {\n        for(uint k = 0; k < c.candidateList.length; k++) {\n            tempCandidate = c.candidateList[k];\n            if (c.candidateHash[tempCandidate] == cHash) {\n                return true;\n            }\n        }\n        return false;\n    }\n\n    function candidateList(uint64 _ballotID) public view returns (bytes32[]) {\n        if (checkballotID(_ballotID) == false) revert();\n        return c.candidateList;\n    }\n\n    function checkTimelimit() public view returns (bool) {\n        if (block.timestamp >= b.timeLimit) return false;\n        else return true;\n    }\n\n    function checkVotesToWin(bytes32 cHash) public view returns (uint256) {\n        if (validCandidate(cHash) == false) revert();\n        return c.votesReceived[cHash];\n    }\n\n    function checkBallottype() private view returns (bool) {\n        if (b.ballotType == 1) return false;\n        else return true;\n    }\n\n    function checkballotID(uint64 ballotID) private view returns (bool) {\n        if (ballotID == b.ballotId) return true;\n        else return false;\n    }\n\n    function checkVoteattempts() public view returns (bool) {\n        if (v.attemptedVotes[msg.sender] == b.voteLimit) return false;\n        else return true;\n    }\n\n    function checkWhitelist() public view returns (bool) {\n        if (b.whitelist == 1) return true;\n        else return false;\n    }\n\n    function checkifWhitelisted(bytes32 email) public view returns (bool) {\n        for(uint j = 0; j < v.whitelisted.length; j++) {\n            tempEmail = v.whitelisted[j];\n            if (tempEmail == email) {\n                return true;\n            }\n        }\n        return false;\n    }\n\n    function getTimelimit() public view returns (uint32) {\n        return b.timeLimit;\n    }\n\n    function getTitle() public view returns (string) {\n        return b.title;\n    }\n\n    function getBallotType() public view returns (uint8) {\n        return b.ballotType;\n    }\n\n    function getVotesToWin() public view returns (uint8) {\n        return b.votesToWin;\n    }\n\n    function getBallotStatus() public view returns (uint8) {\n        return b.ended;\n    }\n\n    function changeBallotStatus() public {\n        b.ended = 1;\n    }\n}\n",
  "sourcePath": "/home/ispm-eth/Ethereum/BroncoVotes/contracts/Voting.sol",
  "compiler": {
    "name": "solc",
    "version": "0.4.19+commit.c4cbbb05.Emscripten.clang"
  },
  "schemaVersion": "1.0.1",
  "updatedAt": "2018-04-13T05:28:30.283Z"
}